S00D00004C65645F312E7372656372
S113000009C021C0CEC06EC11EC01DC01CC01BC013
S11300101AC019C011241FBECFE9CDBF10E0A0E65D
S1130020B0E0EAEBF4E002C005900D92AA36B10705
S1130030D9F720E0AAE6B0E001C01D92A038B207CB
S1130040E1F729D238C2DCCF809168009091690031
S11300508130910559F4E0916E00F0916F00EE0F3C
S1130060FF1FE05AFF4F808186BF0895029751F425
S1130070E0916C00F0916D00EE0FFF1FE05AFF4F0E
S1130080808189BD089580916800909169008130D4
S1130090910591F480916E0090916F0001968430E7
S11300A091052CF490936F0080936E002DC01092F4
S11300B06F0010926E0028C08230910591F48091F7
S11300C06C0090916D000196843091052CF490930E
S11300D06D0080936C0018C010926D0010926C003B
S11300E013C0039789F480916A0090916B00019684
S11300F0843091052CF490936B0080936A0004C0C3
S113010010926B0010926A009FDF089583E090E0E4
S113011090936F0080936E0090936D0080936C00B9
S113012010926B0010926A008FDF0895B89AB99A02
S113013083B7877F83BF8FB582608FBD8FB58160A2
S11301408FBD83B78B7F83BF83B78D7F83BF83B717
S1130150816083BF8FEF86BF89BD0895E7DF89B7CC
S1130160826089BF88B7826088BFBB98C398AB9A06
S11301708BB780628BBF7894089583B78B7F83BFDE
S113018083B78D7F83BF83B78E7F83BF089583B783
S11301908B7F83BF83B78D7F83BF83B7816083BF2A
S11301A008951F920F920FB60F9211242F933F932D
S11301B04F935F936F937F938F939F93AF93BF936B
S11301C0EF93FF9380917C0090917D00A0917E003D
S11301D0B0917F008093720090937300A093740099
S11301E0B093750005B605FE0AC085B78F7D85BF3F
S11301F0CEDF89B7826089BF88B7826088BFFF91EC
S1130200EF91BF91AF919F918F917F916F915F918A
S11302104F913F912F910F900FBE0F901F90189503
S11302208FB58F7B8FBD8FB58F778FBDC0980895A5
S11302308FB58F7E8FBD8FB58F7D8FBDC19808958B
S11302408FB58F7B8FBD8FB580688FBD08958FB5B7
S11302508F7E8FBD8FB580628FBD0895BA9AC29A82
S11302600895BA9AC2980895DBDFE2DFFADF0895B1
S113027080916800909169008130910521F4E0DF5C
S1130280D7DFEFDF08958230910521F4C9DFDFDF86
S1130290E8DF0895039719F4C3DFCADFDFDF0895A9
S11302A080916800909169008130910539F482E071
S11302B090E0909369008093680012C082309105A9
S11302C039F483E090E0909369008093680008C05B
S11302D0039731F481E090E0909369008093680083
S11302E0C7DF08951F920F920FB60F9211242F9318
S11302F03F934F935F936F937F938F939F93AF93AA
S1130300BF93EF93FF9380917C0090917D00A09127
S11303107E00B0917F000196A11DB11D80937C00E9
S113032090937D00A0937E00B0937F0020917A008B
S113033030917B0021303105F9F4409176005091E1
S11303407700609178007091790044525A4F6F4F52
S11303507F4F84179507A607B707F4F0A1DF109223
S11303607600109277001092780010927900109223
S11303707B0010927A0010C02230310569F483DECC
S11303801092760010927700109278001092790003
S113039010927B0010927A00809172009091730009
S11303A0A0917400B0917500181619061A061B0660
S11303B00CF058C040917C0050917D0060917E000B
S11303C070917F008C599F4FAF4FBF4F481759070B
S11303D06A077B070CF446C01092720010927300F7
S11303E01092740010927500B39B27C080917A001C
S11303F090917B00009779F481E090E090937B00EA
S113040080937A004093760050937700609378004D
S11304107093790010C0181619066CF40196909325
S11304207B0080937A00409376005093770060932A
S11304307800709379001CDF15C0B39913C014DFE2
S11304409CDE89B78D7F89BF88B78D7F88BF7894FC
S113045085B7806285BF85B7806185BF85B78860B1
S113046085BF8895FF91EF91BF91AF919F918F9137
S11304707F916F915F914F913F912F910F900FBE9C
S11304800F901F90189582E090E0909369008093FC
S11304906800EEDE08958091700090917100892BC0
S11304A039F45CDE81E090E09093710080937000F9
S10D04B0EADF2CDEFFCFF894FFCF43
S10D04BAFF00800040000A0001006A
S9030000FC
