:1000000009C021C0ACC1F3C01EC01DC01CC01BC0B4
:100010001AC019C011241FBECFE9CDBF10E0A0E661
:10002000B0E0E0EEF3E002C005900D92AA36B10711
:10003000D9F720E0AAE6B0E001C01D92AE37B207C2
:10004000E1F7BFD0CBC1DCCF8FB58F778FBDC09824
:1000500008958FB580688FBD08958FB58F7D8FBD52
:10006000C19808958FB580628FBD0895BA9AC29ADB
:100070000895C2980895B89AB99A8FB582608FBDD5
:100080008FB581608FBD83B7816083BF0895F3DF33
:1000900089B7826089BF88B7826088BFBB98C398E0
:1000A000AB9A8BB780628BBF7894089583B78E7FAD
:1000B00083BF089583B7816083BF0895E0916E0088
:1000C000F0916F00EE0FFF1FE05AFF4F808186BF57
:1000D000E0916C00F0916D00EE0FFF1FE05AFF4FB2
:1000E000808189BD08958091680090916900813078
:1000F000910581F480916E0090916F00019690932C
:100100006F0080936E0004974CF110926F00109274
:100110006E0024C08230910581F480916C00909132
:100120006D00019690936D0080936C000497B4F07D
:1001300010926D0010926C0011C0039779F48091B9
:100140006A0090916B00019690936B0080936A0017
:10015000049724F010926B0010926A00AFCF809148
:100160006800909169008130910519F472DF75DFA4
:1001700005C08230910519F467DF74DF7ACF0397E9
:1001800019F462DF6ADF72CF089580916800909160
:1001900069008130910519F482E090E00AC0823054
:1001A000910519F483E090E004C0039731F481E0F5
:1001B00090E09093690080936800D1CF45DF4DDFD8
:1001C00058CF65DF10926F0010926E0010926D0094
:1001D00010926C0010926B0010926A006FDF81E049
:1001E00090E09093690080936800B9DFFFCF1F9281
:1001F0000F920FB60F9211242F933F934F935F935B
:100200006F937F938F939F93AF93BF93EF93FF93DE
:1002100080917A0090917B00A0917C00B0917D004C
:100220000196A11DB11D80937A0090937B00A0934D
:100230007C00B0937D0020917800309179002130CE
:10024000310599F4409174005091750060917600E9
:100250007091770045525A4F6F4F7F4F481759079B
:100260006A077B07D4F491DF04C022303105A9F47A
:100270003ADF10927400109275001092760010927E
:10028000770010927A0010927B0010927C001092FE
:100290007D0010927900109278004091700050918A
:1002A00071006091720070917300141615061606A5
:1002B00017060CF043C080917A0090917B00A091CA
:1002C0007C00B0917D004D595F4F6F4F7F4F4817B5
:1002D00059076A077B0794F510927000109271001D
:1002E0001092720010927300B39B13C0809374003D
:1002F00090937500A0937600B0937700809178007A
:10030000909179000196909379008093780027DF8F
:1003100015C0B39913C052DFC9DE89B78D7F89BF7D
:1003200088B78D7F88BF789485B7806285BF85B791
:10033000806185BF85B7877F85BF8895FF91EF91E5
:10034000BF91AF919F918F917F916F915F914F91ED
:100350003F912F910F900FBE0F901F9018951F92F5
:100360000F920FB60F9211242F933F934F935F93E9
:100370006F937F938F939F93AF93BF93EF93FF936D
:1003800080917A0090917B00A0917C00B0917D00DB
:100390008093700090937100A0937200B0937300EB
:1003A00005B605FE0AC085B78F7D85BF83DE89B798
:1003B000826089BF88B7826088BFFF91EF91BF914B
:1003C000AF919F918F917F916F915F914F913F91ED
:1003D0002F910F900FBE0F901F901895F894FFCF9C
:0A03E000FF00800040000A00010049
:00000001FF
